:020000040800F2
:1000000080040020AD01000887180008B11700081F
:1000100085180008C10900082D190008000000001B
:100020000000000000000000000000008B18000825
:10003000C309000800000000891800088D18000896
:10004000C7010008C7010008C7010008C701000870
:10005000C7010008C7010008C7010008C701000860
:10006000C7010008C7010008C7010008C701000850
:10007000C7010008C7010008C7010008C701000840
:10008000C7010008C7010008C70100080000000000
:10009000000000000000000000000000C701000890
:1000A000C7010008C7010008C7010008C701000810
:1000B000C7010008C7010008C7010008C701000800
:1000C000C7010008C7010008C7010008C7010008F0
:1000D000C7010008C7010008C701000800000000B0
:1000E000C7010008C7010008C701000800000000A0
:1000F000000000000000000000000000C701000830
:1001000000000000C7010008C7010008C70100087F
:1001100000000000000000000000000000000000DF
:10012000C7010008C7010008C7010008C70100088F
:10013000C7010008000000000000000000000000EF
:10014000000000000000000000000000C7010008DF
:10015000C7010008C7010008C7010008C70100085F
:10016000C7010008C70100080000000000000000EF
:10017000000000000000000000000000000000007F
:1001800000000000C701000800000000000000009F
:10019000C7010008DFF810D000F008FB0048004756
:1001A00081280008AFF300808004002006488047C3
:1001B00006480047FEE7FEE7FEE7FEE7FEE7FEE74C
:1001C000FEE7FEE7FEE7FEE71119000895010008CB
:1001D0002DE9F05F0546002092469B46884606467C
:1001E000814640241BE0284641464746224600F00F
:1001F000F3F853465A46C01A914110D31146184697
:10020000224600F0DAF82D1A67EB01084F46224625
:100210000120002100F0D1F817EB00094E41201E0B
:10022000A4F10104DFDC484631462A464346BDE8D6
:10023000F09FD2B201E000F8012B491EFBD27047BB
:100240000022F6E710B513460A4604461946FFF7A2
:10025000F0FF204610BD2DE9FE4F81EA030404F0B3
:10026000004421F0004100944FF0000B23F00043C4
:1002700050EA01045ED052EA03045BD0C3F30A548F
:10028000C1F30A552C44A4F2F3340194A0FB0254A8
:10029000C1F3130141F48011C3F3130343F480133A
:1002A00001FB024400FB034E840A970A44EA81548E
:1002B00047EA8357A4FB076802958D0A05FB07856B
:1002C0004FEA932C04FB0C542705029D4FEA065875
:1002D00047EA1637B5EB08056EEB070C870E920E52
:1002E00047EA811742EA8312A7FB0201B6EB0B0132
:1002F00064EB00042B0D43EA0C335E1844EB1C50F6
:10030000DA465146E7FB0201C5F313044FEA0B330B
:1003100043EA14534FEA0432019C43EA0603A4F172
:100320000C040294009CCDE900B400F0ABF803B0DB
:10033000BDE8F08F00200146F9E70EB5C10F80EA55
:10034000E0700844CA07002140F233438DE80E00F4
:100350000A460B4600F096F803B000BD00F00042DC
:1003600030F000400AD0C10D01F56071C0F31600F5
:1003700042EA0151C208400711437047002001467C
:10038000704701F0004330B421F0004150EA01020F
:1003900006D00A0DA2F56072C1F31301002A02DC37
:1003A00030BC00207047440F44EAC104C100E0188B
:1003B00030BC00EBC25000F01FB8202A04DB203A0A
:1003C00000FA02F1002070479140C2F1200320FAA8
:1003D00003F3194390407047202A04DB203A21FAA6
:1003E00002F00021704721FA02F3D040C2F120024E
:1003F00091400843194670470029A8BF7047401C28
:10040000490008BF20F00100704710B4B0FA80FC2A
:1004100000FA0CF050EA010404BF10BC704749B167
:10042000CCF1200421FA04F411FA0CF118BF0121D7
:1004300021430843A3EB0C01CB1D4FEA00614FEAB7
:10044000102042BF002010BC704700EBC350104486
:100450000029A4BF10BC7047401C490008BF20F011
:10046000010010BC704710B5141E73F1000408DAC7
:10047000401C41F1000192185B411A4301D120F068
:10048000010010BD2DE9F04D92469B4611B1B1FA25
:1004900081F202E0B0FA80F220329046FFF78DFF41
:1004A00004460F4640EA0A0041EA0B0153465A4609
:1004B000084313D0114653EA010019D0C8F1400295
:1004C0005046FFF789FF05460E46504659464246BC
:1004D000FFF773FF084305D0012004E020463946AA
:1004E000BDE8F08D0020054346EAE0762C43374313
:1004F0000A986305E40AA0EB08000022FD0A44EA1A
:1005000047540A3002D500200146E9E701051019D9
:100510006941DDE9084500196941BDE8F04DA2E7F0
:100520002DE9FE4F804681EA0300C00F0C46009083
:1005300021F0004123F00045B8EB0200A94105D2AB
:100540004046214690461C460B46024623F000409A
:10055000104347D0270DC7F30A00C3F30A51029096
:10056000401A019040286BDAC3F3130040F4801B5B
:100570000098924620B10023D2EB030A63EB0B0BE9
:1005800001985946C0F140025046FFF716FF064653
:100590000D4650465946019A00F01AF910EB080032
:1005A0006141002487EA115284EAE7731A4340D07C
:1005B000009A62B3019A012A4FEA075215DC001B28
:1005C00061EB02014FF0004202EA0752CDE900421E
:1005D000001C41F5801132462B46FFF753FF03B054
:1005E000BDE8F08F40462146F9E7001B61EB0201B0
:1005F000001C41F5801300185B412018A2F500177C
:1006000047EB030140EAD570B6196D4111E06D0862
:100610004FEA360645EAC0754FEA0752001B61EB08
:100620000201001C41F5801149084FEA3000001911
:10063000514132462B4603B0BDE8F04FFFF713BFE0
:100640000098012240000023D0EB020263EBE0732C
:10065000009821464FEAE074B8EB000061EB04011A
:10066000E9E783F000435BE781F0004158E72DE9BB
:10067000F04D81EA030404F0004B21F000451446DC
:100680004FF0000A23F0004150EA050220D054EA5E
:1006900001021DD0C5F30A570246C5F31303C1F387
:1006A0001300C1F30A5640F4801543F48013A7EBFE
:1006B0000608101BD64608F2FD3873EB050002D37E
:1006C00008F1010801E092185B41B8F1000F03DA6C
:1006D00000200146BDE8F08D00204FF48011064651
:1006E00084460EE0171B73EB050705D3121B63EB63
:1006F000050306434CEA010C49084FEA3000921802
:100700005B4150EA0107EDD152EA030012D082EAC0
:10071000040083EA0501084305D0101BAB4106D253
:100720000122002306E000224FF0004302E06FF0B8
:10073000010253101AEB06004CEB085110EB0A00B3
:1007400041EB0B01BDE8F04DFFF78DBE70B521F018
:10075000004303430CD0C1F30A550024D5EB040534
:1007600064EB0403D617AD1AB34102DB0020014647
:1007700070BD201841EB025170BD000030B5041E61
:1007800071F1000404DB4FF00044404264EB0101CE
:10079000141E73F1000405DB1C464FF00043524267
:1007A00063EB0403994208BF904230BD064C074DED
:1007B00006E0E06840F0010394E807009847103431
:1007C000AC42F6D3FFF7EAFC482B0008682B000880
:1007D000202A06DBCB17203A41FA02F043EAE07305
:1007E00006E041FA02F3D040C2F1200291400843F2
:1007F000194670472DE9F04D00231A461B1A8A410D
:1008000003DB00200146BDE8F08DC1F30A52C1F3BD
:10081000130141F480154FF0000BD10702D10018ED
:100820006D41521E0027044640F2FF11384601EB8D
:10083000620A3E468046024600204FF48011FFF7D0
:10084000CBFDC2197141BB1846EB0100B4EB030CA0
:1008500075EB000C04D3E41A65EB000517460E4651
:10086000241908F101006D4180463428E3DDF919AF
:1008700046EB0600091BA84103D24FF0FF32134696
:1008800001E0002213461BEB070046EB0A51BDE8CE
:10089000F04DFFF7E8BD0000464910B54A6822F464
:1008A00040324A604A6843681A434A6001684A68AD
:1008B00022F480724A6001684A68036942EA0322AE
:1008C0004A6001684A6822F040724A6001684A68DA
:1008D00083681A434A6001688A6822F400628A6069
:1008E00001688A68C3681A438A60816A6FF070621F
:1008F000D14201688A6822F070628A6001688A6861
:100900000CD0836A1A438A6001688A6822F04052D8
:100910008A6001688A68C36A1A4301E022F0405283
:100920008A6001688A6822F002028A6001688A6827
:10093000037E42EA43028A6090F820100029016891
:100940004A680FD042F400624A6001684A6822F4A3
:1009500060424A6001684A68174C436A04EB4333BB
:100960001A4301E022F400624A600168CA6A22F474
:100970007002CA620168CA6A838B104C04EB03538D
:100980001A43CA6201688A6822F400728A600168A8
:100990008A6890F8303042EA43228A6001688A68A7
:1009A00022F480628A6001688A68406942EA802095
:1009B000886010BD0023014000E0FFFF0000F0FF51
:1009C000FEE7704778B50024009490F83C20012A97
:1009D00019D0012280F83C200A6807230568092AFB
:1009E00013D9EE680A3A02EB420293409E43EE604E
:1009F0000B788A680A3B03EB43039A400368DD687F
:100A00002A43DA6010E0022078BD2E6902EB420230
:100A100093409E432E610B788A6803EB43039A4010
:100A200003681D692A431A614A681F23072A13D2E3
:100A300005686E6B521E02EB820293409E436E630A
:100A40000B790A885B1E92B203EB83039A4003681A
:100A50005D6B2A435A6327E005680D2A12D22E6B7C
:100A6000D21F02EB820293409E432E630B790A88C9
:100A7000DB1F92B203EB83039A4003681D6B2A438A
:100A80001A6311E0EE6A0D3A02EB820293409E4334
:100A9000EE620B790A880D3B92B203EB83039A4016
:100AA0000368DD6A2A43DA62164B0568144A9D42E0
:100AB00006D10D68122D03D1556845F480055560A7
:100AC00005689D4218D10B68102B01D0112B13D152
:100AD000536843F400035360096810290CD10A4994
:100AE0000A4A0968B1FBF2F101EB8101490000E01B
:100AF000491E00910029FBD180F83C40002078BDC0
:100B000000230140002001402400002040420F004B
:100B10000068C06C704770B504004FF0000503D04A
:100B2000206C002610B107E0012070BD204600F0C7
:100B30001DF8666484F83C60206CC00610D4206CFC
:100B400020F4885040F0020020642046FFF7A4FE05
:100B50006664206C20F0020040F00100206400E098
:100B6000012584F83C60284670BD000010B586B0B1
:100B7000044614216846FFF763FB11492068884248
:100B80001CD110480021026842F4807202600068A3
:100B900000F4807005900B481438026842F002029D
:100BA0000260006800F00200059001200090032020
:100BB000CDE901016946044800F0E8F806B010BD2F
:100BC0000020014044380240000402402DE9F04179
:100BD000044600680D4681684FF0000749050BD5B3
:100BE0008068C00508D5206C40F02000206484F89F
:100BF0003C700120BDE8F08100F09CF906460FE052
:100C0000681C0DD025B100F095F9801BA84207D9CA
:100C1000206C40F00400206484F83C700320E9E775
:100C2000206800688007EBD521686FF0120008602B
:100C3000206C40F4007020642068816811F0405FEF
:100C400013D1217E89B9C16A11F4700F02D0806876
:100C500040050AD4206C20F480702064206CC0040D
:100C600003D4206C40F0010020640020C2E70000A3
:100C700018B50021009190F83C20012A07D00122EC
:100C800080F83C2002689368DB0702D011E0022064
:100C900018BD936843F001039360204A204B12680B
:100CA000B2FBF3F202EB420200E0521E0092002A75
:100CB000FBD102689368DB072DD0036C40F201641E
:100CC000A34343F48073036453685B0505D5036C49
:100CD00023F4005343F480530364036CDB0404D512
:100CE000436C23F00603436400E0416480F83C1049
:100CF0000C496FF02203136049680068C90602D0EE
:100D00000949884207D1816811F0405F03D18168A9
:100D100041F080418160002018BD000024000020C7
:100D200040420F00002301400020014090F83C1099
:100D300001290CD0012180F83C1001688A6822F05A
:100D400001028A6001688968C90702D007E00220B1
:100D50007047016C21F4885141F0010101640021C8
:100D600080F83C100846704770B5044600F0E2F881
:100D70000546601C02D004480078044400F0DAF80C
:100D8000401BA042FAD370BD180000202DE9F84F97
:100D900000224FF0010803254FF00F0E0B6808FAF0
:100DA00002F42340A34271D14E68012E05D0022ED9
:100DB00003D0112E01D0122E15D18668570005FAE6
:100DC00007FC26EA0C06D1F80CC00CFA07FC4CEA2A
:100DD000060CC0F808C04668A6430C79C4F300149A
:100DE000944034434460C668570005FA07FC8C6899
:100DF00026EA0C06BC403443C4604C68022C01D087
:100E0000122C13D1D40800EB8404A346D4F820900C
:100E100054074FEAD46A0EFA0AF629EA06090E695F
:100E200006FA0AF646EA0906CBF8206004680E794D
:100E300024EA0C0406F00306BE40264306604C6814
:100E4000E40056D52E4C266846F480462660246879
:100E500022F0030604F4804400942A4C3444A4464F
:100E6000D4F808489607370F0EFA07F6B443264E13
:100E7000B04201D1002615E0244EB04201D1012636
:100E800010E0234EB04202D102260BE031E0214EA9
:100E9000B04201D1032605E01F4EB04201D1042625
:100EA00000E00726BE402643CCF808681B4E346895
:100EB0004F689C43FF0300D51C433460174E361D1A
:100EC00034684F689C43BF0300D51C433460134E05
:100ED000083634684F689C43FF0200D51C433460D9
:100EE0000E4E0C3634684F689C43BF0200D51C433D
:100EF0003460521C102AFFF451AFBDE8F88F000097
:100F0000443802400030014000000240000402402A
:100F100000080240000C024000100240003C01406A
:100F20000069084000D0012070470AB18161704714
:100F30000904FBE7014880687047000018000020A2
:100F400002488168027811448160704718000020CF
:100F50000B4810B5016841F400710160016841F46B
:100F600080610160016841F480710160032000F03C
:100F700061F8002000F006F800F024F8002010BD11
:100F8000003C024070B50D4D04464FF47A7128784C
:100F9000B1FBF0F00A490968B1FBF0F000F0D6FAB5
:100FA00048B9102C07D200222146501E00F022F82A
:100FB00000206C6070BD012070BD00001800002092
:100FC000240000200A4808B5016841F4804101600E
:100FD000006800F4804000900548001F016841F05F
:100FE00080510160006800F08050009008BD000052
:100FF00044380240F0B40E4B1B680C46C3F3022386
:10100000C3F10705042D00D90425191D072901D2B4
:10101000002300E0DB1E012606FA05F1491E2140EF
:1010200099409E40761E16403143F0BC00F097BCBC
:101030000CED00E0064900F0070208684FF6FF03D8
:10104000184040EA0220034A10430860704700003D
:101050000CED00E00000FA052DE9F0470E46050012
:1010600065D0DFF81481D8F80000F7B200F00F0067
:10107000B04207D288F80070D8F8000000F00F00E6
:10108000B04254D128683D4C810712D5400703D5A2
:10109000206840F4E05020602878000703D52068DD
:1010A00040F4604020602068A96820F0F000084308
:1010B00020602878C0072DD0304968680839012899
:1010C00012D0022813D0032811D0096889070029FB
:1010D0002DDA216821F0030101432160FFF72AFF87
:1010E000814641F2883A0EE009688903EFE7096812
:1010F0008901ECE7FFF71EFFA0EB0901514502D97A
:101100000320BDE8F0872068696800F00C00B0EBB0
:10111000810FEFD1D8F80010404601F00F01B14225
:1011200007D90770006800F00F00B04201D001201D
:10113000E7E72878400705D52068E96820F4E05003
:10114000084320602878000706D52068296920F424
:10115000604040EAC100206000F018F82168084AA9
:10116000C1F30311515CC840064908600648006895
:10117000FFF708FF0020C4E7003C024008380240A7
:10118000A42A0008240000201C000020154810B5E7
:10119000006810F00C02144813D01449042A0FD030
:1011A000082A0ED10F4C241F2268236802F03F0248
:1011B0005B0207D52068C0F38810A0FB010106E0A0
:1011C000084610BD2168C1F38811A1FB000100236E
:1011D000FEF7FEFF2168C1F30141491C4900B0FB45
:1011E000F1F010BD083802400024F40040787D0181
:1011F0002DE9F84F04006ED02078DFF83C93C0074B
:10120000A9F104054AD009F104000168C1F3810184
:10121000012908D00068C0F3810002280AD1D9F85A
:101220000000400206D52868800337D56068002892
:10123000E1D033E06068B0F5803F10D0B0F5A02F6A
:10124000286810D020F480302860286820F480209E
:1012500028606068A8B1FFF76DFE06460DE02868BB
:1012600040F48030F4E740F480202860F7E700BFC6
:10127000FFF760FE801B642873D828688003F7D5C9
:101280000CE0FFF757FE064605E000BFFFF752FEF1
:10129000801B6428F0D828688003F7D42078DFF812
:1012A0009C8280074FF0000A3ED5A348001D0168CC
:1012B00011F00C0F08D00068C0F3810002280BD198
:1012C000D9F80000400207D42868800716D5E068E6
:1012D000012800D112E02BE1E068B8B10120C8F884
:1012E0000000FFF727FE064605E000BFFFF722FEDD
:1012F000801B0228C0D828688007F7D52868216994
:1013000020F0F80040EAC10028600DE0C8F800A015
:10131000FFF710FE064604E0FFF70CFE801B0228D4
:101320001FD828688007F7D42078000722D5824E7E
:1013300083486169703671B101210160FFF7FAFDE0
:10134000074604E0FFF7F6FDC01B022809D8306805
:101350008007F7D50EE0C0F800A0FFF7EBFD0746C9
:1013600005E082E0FFF7E6FDC01B02287DD830686B
:101370008007F7D42078400768D5DFF8BCB1002794
:101380000BF13C0BDBF80000C0000BD4DBF80010C5
:1013900041F08051CBF80010DBF80000012700F08D
:1013A00080500090674E3068C00510D4306840F41B
:1013B00080703060FFF7BEFD009005E0FFF7BAFDDA
:1013C0000099401A022850D83068C005F6D55A4E08
:1013D000A0686C3601280FD00528306810D020F0A6
:1013E00001003060306820F004003060A068B8B1BF
:1013F000FFF7A0FD00900FE0306840F00100F4E737
:1014000040F004003060F7E7FFF794FD0099411ABF
:1014100041F28830814266D830688007F4D50EE00A
:10142000FFF788FD009007E0FFF784FD0099411A5F
:1014300041F28830814256D830688007F4D42FB109
:10144000DBF8001021F08051CBF80010A069C8B380
:101450003949091D0968C1F3810102294AD00228CE
:10146000504607D0C8F8600000E03CE0FFF762FD9E
:1014700004463BE04746C8F86000FFF75BFD0646C0
:1014800005E000BFFFF756FD801B02282BD8286817
:101490008001F7D4D4E907010843A16A2A4A490820
:1014A00002EB0141626A41EA8211084394F82C1070
:1014B00040EA0161C9F8001001203866FFF73AFDE3
:1014C000044606E036E000BFFFF734FD001B0228AB
:1014D00009D828688001F7D52CE000BFFFF72AFD66
:1014E000001B022802D90320BDE8F88F286880017C
:1014F000F4D41FE00128F7D0D9F80000E26900F425
:101500008001914214D1226A00F03F0191420FD133
:1015100047F6C071626A0140914209D1A26A00F4A3
:101520004031914204D1E16A00F07060884201D0FC
:101530000120D9E70020D7E70438024000004742E5
:10154000800E4742007000400000FFFF10B5401EB3
:10155000B0F1807F01D3012010BD4FF0E024606125
:101560000F21601700F0FBF90020A0610720206127
:10157000002010BD10B5012000F006F8BDE81040B5
:101580000320FFF7F1BB000010B504460022202124
:101590000548FFF7CAFC200900F008F804F00F0026
:1015A000BDE8104000F002B80000024070B50446EB
:1015B0001B4D000701D5012200E000220121284631
:1015C000FFF7B3FC600701D5012200E000220221F1
:1015D0002846FFF7AAFCA00701D5012200E000225F
:1015E00004212846FFF7A1FCE00701D0012200E01A
:1015F000002208212846FFF798FC012210212846E6
:10160000FFF793FC0020FFF7AFFB002210212846D4
:10161000FFF78BFCBDE870400020FFF7A5BB000082
:101620000000024008B509A212680092084AD37867
:101630008B4200D80021507191711DF801100844AF
:10164000C0B240F08000FFF79FFF08BD0040145477
:101650001100002010B50446012220210548FFF7A3
:1016600064FC2009FFF7A2FF04F00F00BDE8104062
:10167000FFF79CBF000002400449087840F00400D6
:10168000087040F00800FFF77FBF00001100002045
:1016900070B52E4C0D460646002220212046FFF74D
:1016A00044FC002210212046FFF73FFC00220821C5
:1016B0002046FFF73AFC002204212046FFF735FCC4
:1016C000002202212046FFF730FC002201212046A3
:1016D000FFF72BFC2D20FFF747FB1D4C0020012DB1
:1016E000E57026716071A071607001D9082060708A
:1016F0000320FFF75BFF0420FFF736FB0320FFF713
:1017000055FF0420FFF730FB0320FFF74FFF0420B5
:10171000FFF72AFB0220FFF749FF0020FFF724FB19
:10172000607840F02000FFF72FFF04202070FFF7C3
:10173000A3FFFFF71FFF0220A0700620FFF724FF82
:10174000BDE870400420FFF70FBB0000000002401E
:101750001100002070B51546FFF764FF134C16E02A
:1017600060792179884207D300206071A179491CF2
:10177000C9B2A171FFF756FF28780A280BD00D28AF
:101780000FD0FFF767FF6079401C60716D1C2878EF
:101790000028E5D170BDA079401CC1B2A17160796B
:1017A00001E0A1790020FFF73DFFEFE711000020E5
:1017B000FEE700007FB500241448009401940294D1
:1017C00011490394C0E9001484600461047680F830
:1017D00020400F49C0E90A140125C561C46080F8A2
:1017E00030404561FFF797F908B172B6FEE708206F
:1017F000CDE90005694602940448FFF7E3F80028A4
:1018000001D072B6FEE77FBD002001403800002005
:101810000100000F70B586B014216846FEF710FD78
:1018200015480024016841F001010160016801F0E0
:1018300001010591016841F00201016000680F4E4D
:1018400000F0020005902246FF213046FFF76DFBB5
:10185000FF2000900125CDE90154694630460394EC
:10186000FFF794FA4FF206008DE83100694604480C
:10187000FFF78CFA06B070BD30380240000002401D
:1018800000040240FEE7FEE770477047FFF758BBD1
:1018900010B592B030216846FEF7D2FC14210CA896
:1018A000FEF7CEFC18480024016841F08051016029
:1018B000006800F0805011901448016821F4404104
:1018C00041F4004101600068069400F4404011902A
:1018D0000220009001200390102004906846FFF73A
:1018E00087FC08B172B6FEE70F20CDE90C040E9418
:1018F0000F9400210CA81094FFF7AEFB002801D034
:1019000072B6FEE712B010BD4038024000700040D1
:101910000548016841F47001016003494FF000601F
:10192000803908607047000088ED00E0FEE703B4EE
:1019300001984100009850EAC12018BF04204A0DC8
:1019400018BF40F0010040F2FF72B2EB515F08BFD8
:1019500040F00200012808BF052002B070470907C7
:10196000090E002804DB00F1E02080F80014704725
:1019700000F00F0000F1E02080F8141D7047000017
:101980002DE9F04D2DED040B2DED0E8B96B0DDE91C
:101990002550279CDDF890A025F0004624F0004853
:1019A000BAF1000F14BF0121002101EB4502FC49EF
:1019B00053184A1093422AD3002814BF012300234E
:1019C00003EB44030B44F7498B4220D358EA000150
:1019D0009FEDF59B76D0DFF8D8B35D4503D1BAF122
:1019E000000F05D188E0BAF1000F08BF002100D038
:1019F000012101EB450111F5001F08D8002814BF93
:101A00000121002101EB440111F5001F0BD99DEDCF
:101A1000261B9DED240B16B0BDEC0E8B04B0BDE86B
:101A2000F04D00F069BE0027002DBCBFE14988459C
:101A300021DAE1498845A8BF02271CDAC3451ADC30
:101A4000DE4901EB2851142908DDC1F1340220FAE6
:101A500002F101FA02F282420DD108E058B9C1F157
:101A6000140228FA02F101FA02F2424503D101F010
:101A70000101C1F1020756EA0A0124D1002C22DA41
:101A8000002D18BF022F01D0012F0AD0022000F034
:101A90007FFE16B0BDEC0E8B04B0BDE8F04D00F03B
:101AA00013BE022000F074FE00F00EFE51EC100B8D
:101AB00081F0004141EC100B16B0BDEC0E8B04B070
:101AC000BDE8F08D18E09FEDBEAB9FEDBF8B002809
:101AD00071D1B848804522D105F1804010F58010C1
:101AE00008BFBAF1000F07D0B3450ADC002CA8BF2D
:101AF0009DED260BE0DA0DE0B0EE490AF0EE690A42
:101B0000DAE7002C06DA9DED260B51EC100B81F084
:101B100000416FE0AE48784490ED000BCCE7D8452B
:101B20004DD1002C48DA2EB186423AD1BAF1000FDD
:101B300042D126E0BAF1000F13D0022000F028FEB7
:101B400000F0F6FD8DED020B9DED240B8DED000BED
:101B500010EE900A039961F31E0003909DED020BB5
:101B6000AAE78DED02AB9DED240B1AEE901A10EE54
:101B7000900A8DED000B61F31E0003909DED020BAA
:101B80009AE78DED028B9DED240B18EE901A10EE66
:101B9000900A8DED000B61F31E0003909DED020B8A
:101BA0008AE709DA9DED240B51EC190B53EC102B4D
:101BB000FEF75DFD1EE020E09DED240B7CE78642F4
:101BC0001BDAB4F1804F0DD0A4F10050B0F1FF50FA
:101BD00013D1002D11DB9DED240B51EC100B00F007
:101BE0002AFF07E09DED240B53EC102B51EC100B5A
:101BF00000F0C2BC41EC100B5EE79DED240B51ECF4
:101C0000100B00F0CBFDBAF1000FCDE90E0142D16F
:101C10009FED710B46B3A6F1E040B0F17F600CD0B0
:101C20005E4538D1002D00DAA7B3022F0CBF01208A
:101C30004FF0FF30FEF781FBDCE7002D01DD002CCB
:101C40000DDA002D01DD002C1FDB002D16DA002C33
:101C500014DB012F08BF9FED620B3FF42DAFB0EEF8
:101C60004A0AF0EE6A0A27E7022F18BF002D0CD0AF
:101C7000012F0AD1002DFFF61FAF06E0002DB8BFDF
:101C8000002C08DA012F3FF417AFB0EE480AF0EE4F
:101C9000680A11E71BE0012000EBE57050EA07013C
:101CA00015D0791EB0EE498AF0EE698A084308BF64
:101CB0009FED4D8B4E480025804570DD4D494E48C7
:101CC000884514DDB0420DDB002C19DB2FE001202C
:101CD00000F05EFD16B0BDEC0E8B04B0BDE8F04D1B
:101CE00000F016BDB34502DC002C09DC1FE0864283
:101CF00002DA002C1BDA03E05E452BDD002C16DD3A
:101D0000022000F045FD00F013FD8DED020B53ECB9
:101D10001A2B51EC180BFEF79EFACDE9000103993E
:101D2000019861F31E0003909DED020BC4E60220B2
:101D300000F02EFD00F00CFD10EE901A18EE900A47
:101D40008DED020B8DED008B61F31E0003909DED78
:101D5000020BB1E69DED0E0B53EC192B51EC100B61
:101D6000FEF77FFC9FED260BCDE9080153EC102B0D
:101D70009DED080B51EC100BFEF76DFA9FED221B49
:101D800053EC112BFEF770FC9DED081B53EC112B4F
:101D9000FEF761FA9FED1E1B53EC112B3CE08CE02B
:101DA000FFFF1F00FFFF0F00000000000000F03FDA
:101DB0000000F03F0000F07F0000404301FCFFFF07
:101DC000000000000000F07F0000000000000000A4
:101DD000261000000000000000000000000000804D
:101DE000000000000000F0FF000000000000F0BF55
:101DF0000000E0410000F043FFFFEF3F0000000063
:101E0000000000000000D03F555555555555D53FB1
:101E1000000000000000E03FFEF726FC9DED080BEF
:101E200041EC1A0B53EC102B51EC100BFEF713FA8C
:101E300053EC1A2BFEF70FFA41EC1A0B9FEDFE0B39
:101E400053EC102B9DED080B51EC100BFEF703FA31
:101E500041EC1B0B9FEDFA0B51EC1A0B53EC102BC2
:101E6000FEF7F9F941EC1A0B9FEDF70B53EC102B31
:101E70009DED080B51EC100BFEF7EDF953EC1A2B0E
:101E8000FEF7EFFB41EC1A0B51EC1B0B53EC1A2B3A
:101E9000FEF746FB0690CDE906519DED060B53EC8F
:101EA0001B2B51EC100BFEF7DCFB53EC1A2BFEF74F
:101EB000DBFB41EC100B00F0A1B90020B6F5801F50
:101EC0000EDA9FEDE30B53EC102B9DED0E0B51EC56
:101ED000100BFEF7C0F9CDE90E016FF034000E468D
:101EE00000EB2650A0F2FF37C6F31300DA4940F0AA
:101EF0007F6646F040568842D8BF002408DDD749A7
:101F00008142C8BF012403DC0024A6F580167F1C93
:101F1000D348784400EBC4000F9690ED00CB9DEDC4
:101F20000E0B53EC1C2B51EC100BFEF79AFB9DEDA6
:101F30000E0B41EC1B0B53EC1C2B51EC100BFEF762
:101F4000EFFA41EC100B51EC190B53EC102BFEF790
:101F50008EFB41EC1D0B51EC1B0B53EC1D2BFEF7C4
:101F60007AF941EC1A0BBF488DED10AB784410950F
:101F700090ED000B4FF0005040EA660000EB84400B
:101F80008DED080B00F5002009909DED080B53EC3A
:101F90001C2B51EC100BFEF764FB9DED0E1B53EC5C
:101FA000112BFEF761FB41EC100B53EC102B9DED58
:101FB000100B51EC100BFEF74EF99DED080B41ECA8
:101FC0001C0B53EC102B9DED100B51EC100BFEF77E
:101FD00042F953EC1B2BFEF747FB53EC1C2BFEF78F
:101FE00040FB53EC1D2BFEF736F941EC1C0B53EC78
:101FF0001A2B51EC1A0BFEF72EF941EC1B0B9A48E9
:102000000621B0EE4B0AF0EE6B0A784400F0E0FADD
:10201000B0EE401AF0EE601AB0EE41DAF0EE61DA9E
:1020200053EC1B2B51EC1B0BFEF715F953EC1D2B3E
:10203000FEF711F99DED100B41EC1B0B53EC1A2B25
:1020400051EC100BFEF76CFA53EC1C2BFEF703F966
:1020500053EC1B2BFEF764FA9DED100B41EC1B0BB0
:1020600053EC102B51EC100BFEF7F5F841EC1D0B67
:102070009FED7FEB53EC1E2BFEF752FA53EC1B2B1C
:10208000FEF74EFA0890CDE908519DED080B53EC90
:102090001E2B51EC100BFEF7E4FA53EC1D2BFEF750
:1020A000E0FA53EC1B2BFEF7DFFA9DED080B41EC39
:1020B0001D0B53EC102B9DED100B51EC100BFEF78C
:1020C000CAF841EC1B0B53EC1A2B51EC1D0BFEF71D
:1020D000C2F89DED080B41EC1A0B53EC102B51ECA0
:1020E0001C0BFEF7B8F853EC1A2BFEF719FA41EC6B
:1020F0001A0B51EC1B0B53EC1A2BFEF711FA0C9038
:10210000CDE90C519DED0C0B53EC1B2B51EC100B3E
:10211000FEF7A7FA53EC1A2BFEF7A6FA41EC1B0BBD
:102120009FED550B53EC102B9DED0C0B51EC100B50
:10213000FEF791F841EC1A0B9FED510B51EC1B0B84
:1021400053EC102BFEF787F841EC1B0B9FED4E0B69
:1021500053EC102B9DED0C0B51EC100BFEF77BF8A4
:1021600053EC1B2BFEF7DCF941EC100B484878448C
:1021700000EBC40090ED001B51EC100B53EC112B45
:10218000FEF7CEF941EC1B0B3846FEF7D6F8CDE949
:10219000080153EC1B2B51EC1A0BFEF7C1F941EC73
:1021A000100B3C48784400EBC40090ED00CB51ECA0
:1021B000100B53EC1C2BFEF7B3F99DED081B53ECF1
:1021C000112BFEF7ADF90690CDE906519DED080BF8
:1021D00053EC102B9DED060B51EC100BFEF741FA62
:1021E00053EC1C2BFEF73DFA53EC1A2BFEF739FA91
:1021F00053EC1B2BFEF738FA41EC100B9DED261B20
:1022000053EC102B8DED001B00959DED260B51EC32
:10221000100BFEF720F89DED000B41EC1A0B53EC70
:10222000102B9DED260B51EC100BFEF71AFA9DEDCD
:10223000061B53EC112B2FE0000000604715F73F01
:10224000FE822B654715F73F44DF5DF80BAE543E29
:1022500000000000000040438E9803007AB60B0097
:10226000A20B0000D00B0000DA0A00000000000002
:102270000000000000000840000000E009C7EE3F39
:10228000FD033ADC09C7EE3FF5015B14E02F3EBECB
:102290006609000020090000FDF7DDFF53EC1A2B52
:1022A000FEF73EF99DED060B41EC1A0B53EC102B9B
:1022B0009DED000B51EC100BFDF7CDFFCDE90C01AE
:1022C0009DED0C0B51EC1A0B53EC102BFEF728F97B
:1022D000CDE902010C46AA498C422FDB611A084362
:1022E00018D19DED0C0B53EC102B9DED020B51EC16
:1022F000100BFEF7B6F941EC1B0B9FEDA30B51EC55
:102300001A0B53EC102BFEF70BF953EC1B2BFEF7BB
:1023100035FA2DD2022000F03BFA00F009FA10EE57
:10232000901A18EE900A8DED020B8DED008B61F383
:102330001E0003909DED020BFFF7BEBB944A24F0F4
:102340000041914214D39349214408437FF4EFACF8
:102350009DED0C0B53EC102B9DED020B51EC100B73
:10236000FEF77FF953EC1A2BFEF708FA7FF6DFAC85
:1023700024F000408849894A002601EB205182421E
:102380002BDA481C4FF4801121FA00F02044844AD3
:10239000C0F30A517A44A1F2FF3192ED000B814A59
:1023A0008DED080BCA4020EA0202C0F3130040F48E
:1023B0008010C1F1140120FA01F60992002CB8BF77
:1023C00076429DED080B53EC102B9DED0C0B51EC60
:1023D000100BFEF746F9CDE90C019DED0C0B51EC0D
:1023E0001A0B53EC102BFEF79BF89FED6F0B089028
:1023F000CDE9085153EC102B9DED080B51EC100B5F
:10240000FDF729FF41EC1B0B9FED690B53EC102BE3
:102410009DED080B51EC100BFDF71DFF9DED0C0B16
:1024200041EC1C0B53EC102B9DED080B51EC100BE9
:10243000FEF717F953EC1A2BFEF716F99FED5E1B0A
:1024400053EC112BFDF707FF53EC1C2BFEF768F83C
:1024500041EC1A0B51EC1B0B53EC1A2BFEF760F8F6
:10246000CDE902019DED020B53EC1B2B51EC100B3F
:10247000FEF7F7F853EC1A2BFEF7F6F89DED020B7A
:1024800041EC1A0B53EC102B51EC100BFDF7E3FE53
:10249000CDE908014A489DED080B0521784400F07C
:1024A00097F89DED081B51EC100B53EC112BFDF729
:1024B000D2FE9DED021B53EC112BFEF7D5F8CDE9B2
:1024C00006019DED020B53EC1A2B51EC100BFDF79E
:1024D000C2FE53EC1A2BFEF723F89FED3B0B41ECA9
:1024E0001A0B53EC102B9DED060B51EC100BFEF765
:1024F000B8F89DED060B41EC1B0B53EC102B9DED3A
:10250000020B51EC100BFDF7A6FE53EC1B2BFEF754
:10251000AEF853EC1A2BFEF7A4F89DED021B53EC1A
:10252000112BFEF79EF853EC192BFEF79DF8CDE921
:10253000020101EB065001150029C8BF039015DC0C
:102540009DED020B324651EC100BFEF7FFF8FFF742
:10255000EEF9042808BF00F0FBF832469DED020BAF
:1025600051EC100BFEF7F2F8CDE902019DED020BE4
:1025700051EC180B53EC102BFDF76DFEFFF73ABB37
:102580000000904000000000FE822B654715973C3C
:1025900000CC904000346F3F01FCFFFF0000E03FA3
:1025A000A8070000FFFF0F0000000000432EE63FD9
:1025B000396CA80C615C20BEEF39FAFE422EE63F72
:1025C000780600000000000000000000000000404D
:1025D00070B504462DED028B4D1E00EBC500B0EE2C
:1025E000408AF0EE608A90ED000B35F0060017D0BF
:1025F00053EC182B51EC100BFDF72DFE41EC100B9A
:102600006D1E04EBC50090ED001B51EC100B53EC5C
:10261000112BFDF785FF41EC100B35F00600E7D1DB
:10262000022D36D0042D1CD0062D1CBFBDEC028B14
:1026300070BD53EC182B51EC100BFDF70CFE94ED14
:102640000A1B53EC112BFDF76BFF53EC182BFDF716
:1026500002FE94ED081B53EC112BFDF761FF41ECDA
:10266000100B53EC182B51EC100BFDF7F4FD94ED0F
:10267000061B53EC112BFDF753FF53EC182BFDF702
:10268000EAFD94ED040B53EC102BFDF749FF41ECF0
:10269000100B53EC182B51EC100BFDF7DCFD94EDF7
:1026A000021B53EC112BFDF73BFF53EC182BFDF7EE
:1026B000D2FD94ED001B53EC112BFDF731FFBDEC67
:1026C000028B41EC100B70BD9FED070B10B553EC66
:1026D000102B9FED070B51EC100BFDF7C8FF41ECE1
:1026E000100B10BD00000000000000000000000002
:1026F000000000000000F03F10B553EC112B51EC2E
:10270000100BFDF70DFF41EC100B10BD0000000099
:102710009FED050B10B553EC102B51EC100BFDF792
:10272000A6FF41EC100B10BD0000000000000000EF
:102730009FED050B10B553EC102B51EC100BFDF772
:102740008AFD41EC100B10BD00000000000000707D
:102750009FED050B10B553EC102B51EC100BFDF752
:102760007AFD41EC100B10BD0000000000000010CD
:1027700002E008C8121F08C1002AFAD1704770474A
:10278000002001E001C1121F002AFBD170470000A8
:1027900001490860704700002800002082B0CDE9A0
:1027A000000121F0004001909DED000B02B051ECC2
:1027B000100B704770B5FDEEC00A04462DED048B7A
:1027C00010EE900A0D46002200EE900A2146F8EE27
:1027D000E00A30EE608A00F033F80646002D27D07C
:1027E0002E20A0552846FDF7A8FD41EC110B9FEDCA
:1027F000120BFFF7C5F8B0EE409AF0EE609A18EEB3
:10280000100AFDF7ABFD53EC192BFDF724FDFDF786
:10281000B8FD00EE100ABDEC048BA1192A46BDEEEE
:10282000C00ABDE8704010EE100A491C00F008B85C
:10283000BDEC048B70BD00000000000000002440CF
:1028400030B50D4600240A2109E000BF90FBF1F3EA
:1028500001FB130390FBF1F030332B55641C00286F
:10286000F4D13020944202DA2855641CFAE721465C
:10287000284600F0D3F820202855204630BD00001F
:102880002DED048BFEF764FBFFF702F8FEF7C2FFA5
:10289000FEF790FF02211020FEF7FAFE002150A261
:1028A0000846FEF757FF4FA201210020FEF752FF16
:1028B0004EA200210920FEF74DFF9FED4D8B4E4D9E
:1028C0004E4C4F4EDFF83C914FF480474FF4004898
:1028D000B7EE009A4C48FEF7CBF905214A48FEF7BF
:1028E00075F930B94848FEF713F94349606014316F
:1028F00008604548FEF71AFA6068FDF71EFD53ECC4
:10290000182BFDF7A8FCFDF73CFD00EE100A3E4831
:1029100084ED020A01210C38FFF74CFF3A4A0021EE
:102920000C3A0420FEF716FF02212846FEF7F8FABB
:1029300020B936A200210C20FEF70CFF0421284606
:10294000FEF7EEFA20B932A200210C20FEF702FFBA
:1029500039462846FEF7E4FA50B994ED000A2D49AD
:1029600010EE100A884203DC30EE090A84ED000AFA
:10297000224801210C3094ED000AFFF71BFF1F4A8B
:1029800001210C320620FEF7E5FE41462846FEF7FF
:10299000C7FA50B994ED000A1F4910EE100A884298
:1029A00003DB30EE490A84ED000A144801210C30A3
:1029B00094ED000AFFF7FEFE104A01210C320620BA
:1029C000FEF7C8FE2068B04202DCA068B04201DD1C
:1029D000012200E0002240214846FEF7A6FA79E7EE
:1029E00054533A004954533A0000000053443A000B
:1029F00043CA4FAA7D3A6E3F000402400000002007
:102A00000000A04000000240380000204F4E20008F
:102A10004F666600000060410000404010B5002293
:102A2000491E05E0835C445C84544354491E521C97
:102A30008A42F7DB10BD00B52DED048B83B041EC6D
:102A4000190BFDF7D7FE41EC180B18EE100A18EE23
:102A5000901A8DED008B002818BF0120084320F04C
:102A60000040C0F17F6000F1E040C00F14D019EECB
:102A7000101A19EE900A8DED009B002918BF012154
:102A8000084320F00040C0F17F6000F1E040C00F3B
:102A900004BF0120FFF77CFE51EC180B03B0BDEC26
:102AA000048B00BD000000000000000001020304D0
:102AB0000607080900000000000000000000F03FC9
:102AC000000000000000F83F0000000000000000CF
:102AD0000000004003B8E23F0000000000000000DA
:102AE00006D0CF43EBFD4C3E033333333333E33F68
:102AF000FFAB6FDBB66DDB3F4D268F515555D53F94
:102B000001411DA96074D13F65DBC9934A86CD3F61
:102B1000EF4E454A287ECA3F3E5555555555C53F4F
:102B200093BDBE166CC166BF2CDE25AF6A56113F41
:102B3000F16BD2C541BDBBBED0A4BE726937663E43
:102B40000000000000000000682B000800000020CA
:102B50002C00000070270008942B00082C00002097
:102B6000540400008027000800000040000000001E
:102B70000000000000000000000000000000000055
:102B80000100000010000000000000000024F4001C
:042B90000000000041
:040000050800019559
:00000001FF
